:020000040000FA
:1000000020280B1D01280B110034A10B00343D30BA
:10001000A10006180D2806140E28061001348611BA
:10002000A60B08003030A6000130A2070318A30A6F
:100030008615080086191E2886151F2886110800B7
:1000400007309F008316D53081008B01C0308600B9
:10005000FF308500831286013D30A1000030A000F2
:100060003030A6000030A200A3000E30A5001030F2
:10007000A40001208614201886100615A018061169
:1000800000302006031951280130200603195E288C
:1000900002302006031973280330200603198F2825
:1000A0002028861206120520003A031939280F204D
:1000B000A208031939280130A00039288612061237
:1000C00002300518A0000520003A031939280F2036
:1000D00022082406031D392823082506031D392874
:1000E0000330A0003928861601308518A0000230A0
:1000F0000518A0000612A308031906160520003AE9
:10010000031939281A20A2032208FF3A0319A3036E
:1001100022082304031D39280030A0003928861244
:0C012000061202300518A0000520392846
:02400E00613F10
:00000001FF
