:020000040000FA
:1000000020280B1D01280B1108000C1C05280C10C2
:1000100008008C1C09288C1008001F151F190E28B9
:100020000800861A15288616162886120800270842
:1000300083161E0283122808031C280A1E020800C9
:10004000073097008316D53081008B018C01C030BA
:100050008600FF3085008312860183168E309F0054
:10006000831281309F0090018F018E0192018316CF
:100070009C30920083123A30920012150530A10094
:10008000DC30A0000030A500A300A400A200A60060
:100090008C0109202008FF3C8E002108031C5228F7
:1000A000FF3C5328FE3C8F00101406140520061058
:1000B0001010851C6428A60A2608023A031D66282B
:1000C000220A0339A20066280301A6002208003A8A
:1000D000031973282208013A031983282208023AD7
:1000E0000319AF28F32806158611061286120D2073
:1000F00083161E088312DC3EA0001E0803181E0A89
:10010000033EA10049280611861506128612013009
:10011000A307031C0301A40725189328E830A000B7
:100120000330A1009728D030A0000730A1000D2097
:10013000053083161E078312A7001E0803181E0A27
:10014000A800230827022408031C240A28020318F5
:1001500049280130A5060301A300A400492806117F
:100160008611061686120D2083161E088312A7001C
:100170001E08A8000310A80CA70C0310A80CA70CBD
:100180000310A80C270C013EA700A80103012506B7
:100190000319CF28A709A70A0319A803A809270844
:1001A000A0070318A10A2808A107E830200203309D
:1001B000031C04302102031CEC28D030200207303D
:1001C000031C08302102031C49280130A500D0304F
:1001D000A0000730A10049280030A500E830A000A9
:1001E0000330A100492806118611061286160D203B
:1001F0005530A7000130A8001720031C0729AA309A
:10020000A7000230A8001720031811290C29E83094
:10021000A0000330A1004928DC30A0000530A10077
:0C0220004928D030A0000730A100492878
:02400E00613F10
:00000001FF
